:100000000C943E000C9448000C9448000C9448005A
:100010000C9448000C9448000C9448000C94480040
:100020000C9448000C9448000C9448000C94480030
:100030000C9448000C9448000C9448000C94480020
:100040000C9448000C9448000C9448000C94480010
:100050000C9448000C9448000C9448000C94480000
:100060000C9448000C9448000C9448000C944800F0
:100070000C9448000C9448000C94480011241FBEB6
:10008000CFEFD8E0DEBFCDBF0E94F3000C94020199
:100090000C94000088B1806488B900C088B18F7B5F
:1000A00088B90895CF93DF93D82F662321F088B1C4
:1000B000806188B903C088B18F7E88B988B18F7D8F
:1000C00088B987B18F6087B9C8B1C07F8D2F8295FD
:1000D0008F708C2B88B90E944A00DF70DC2BD8B956
:1000E0000E944A00CF60C8B9DF91CF91089588235C
:1000F00021F088B1806188B903C088B18F7E88B94A
:1001000088B1806288B987B1807F87B988B18064FF
:1001100088B900C096B19295907F88B18F7B88B9DD
:1001200000C088B1806488B900C086B18F7028B1E2
:100130002F7B28B9892B089580E00E9477008823BF
:10014000DCF381E090E00197F1F780E00E94770016
:100150000895CF93C82F0E949C0060E08C2F0E94CE
:100160005200CF91089581E00E94A90008951F9345
:10017000CF93DF93182F87B18F6787B980E999E311
:100180000197F1F788B1826088B988B1816088B938
:100190000E944A0085EF91E10197F1F70E944A0021
:1001A000CAE3D0E0CE010197F1F70E944A00CE01E8
:1001B0000197F1F788B18E7F88B90E944A00219794
:1001C000F1F788E20E94A90088E00E94A9000E943D
:1001D000B30086E00E94A900812F0E94A900DF9150
:1001E000CF911F9108958CE00E94B7000E94F90002
:1001F000FFCF1092C50087E18093C40088E180930F
:08020000C1000895F894FFCF3E
:00000001FF
