S0120000454550524F4D5F6578632E73726563AB
S11300000C943E000C9453000C9453000C94530035
S11300100C9453000C9453000C9453000C94530010
S11300200C9453000C9453000C9453000C94530000
S11300300C9453000C9453000C9453000C945300F0
S11300400C9453000C9453000C9453000C945300E0
S11300500C942C010C9453000C9453000C945300F6
S11300600C9453000C9453000C9453000C945300C0
S11300700C9453000C9453000C94530011241FBE91
S1130080CFEFD8E0DEBFCDBF11E0A0E0B1E0ECECF3
S1130090F2E002C005900D92AC30B107D9F70E948E
S11300A022010C9464010C94000088B1806488B926
S11300B000C088B18F7B88B90895CF93DF93D82F80
S11300C0662321F088B1806188B903C088B18F7E2E
S11300D088B988B18F7D88B987B18F6087B9C8B175
S11300E0C07F8D2F82958F708C2B88B90E9455000C
S11300F0DF70DC2BD8B90E945500CF60C8B9DF91FE
S1130100CF910895882321F088B1806188B903C014
S113011088B18F7E88B988B1806288B987B1807FC1
S113012087B988B1806488B900C096B19295907FF0
S113013088B18F7B88B900C088B1806488B900C059
S113014086B18F7028B12F7B28B9892B089580E060
S11301500E9482008823DCF381E090E00197F1F7AC
S113016080E00E9482000895CF93C82F0E94A700C8
S113017060E08C2F0E945D00CF91089581E00E9481
S1130180B4000895CF93C82F0E94A700CA3049F441
S1130190803410F480E401C080E080580E94B400F0
S11301A004C061E08C2F0E945D00CF910895CF932D
S11301B0DF93FC0103C00E94C200FE01EF012196FF
S11301C080818111F8CFDF91CF9108951F93CF9350
S11301D0DF93182F87B18F6787B980E999E3019777
S11301E0F1F788B1826088B988B1816088B90E94CA
S11301F0550085EF91E10197F1F70E945500CAE39C
S1130200D0E0CE010197F1F70E945500CE0101978D
S1130210F1F788B18E7F88B90E9455002197F1F7D4
S113022088E20E94B40088E00E94B4000E94BE00EC
S113023086E00E94B400812F0E94B400DF91CF9128
S11302401F9108958CE00E94E6000E94360180E030
S113025091E00E94D700FFCF1F920F920FB60F922A
S113026011240F900FBE0F901F9018958AB18E7FA6
S11302708AB98AB182608AB98BB182608BB9E0ECA9
S1130280F0E080818D7F808387E190E09093C500CA
S11302908093C400E2ECF0E080818F7380838081DE
S11302A08F7C80838081877F8083A1ECB0E08C91F8
S11302B08B7F8C938081866080838C9180688C9303
S10F02C08C9188618C930895F894FFCF12
S10F02CC565449205761726567656D0047
S9030000FC
